{
  "contractName": "ArtToken",
  "abi": [
    {
      "inputs": [
        {
          "internalType": "string",
          "name": "_name",
          "type": "string"
        },
        {
          "internalType": "string",
          "name": "_symbol",
          "type": "string"
        }
      ],
      "stateMutability": "nonpayable",
      "type": "constructor"
    },
    {
      "anonymous": false,
      "inputs": [
        {
          "indexed": true,
          "internalType": "address",
          "name": "owner",
          "type": "address"
        },
        {
          "indexed": true,
          "internalType": "address",
          "name": "approved",
          "type": "address"
        },
        {
          "indexed": true,
          "internalType": "uint256",
          "name": "tokenId",
          "type": "uint256"
        }
      ],
      "name": "Approval",
      "type": "event"
    },
    {
      "anonymous": false,
      "inputs": [
        {
          "indexed": true,
          "internalType": "address",
          "name": "owner",
          "type": "address"
        },
        {
          "indexed": true,
          "internalType": "address",
          "name": "operator",
          "type": "address"
        },
        {
          "indexed": false,
          "internalType": "bool",
          "name": "approved",
          "type": "bool"
        }
      ],
      "name": "ApprovalForAll",
      "type": "event"
    },
    {
      "anonymous": false,
      "inputs": [
        {
          "indexed": true,
          "internalType": "address",
          "name": "previousOwner",
          "type": "address"
        },
        {
          "indexed": true,
          "internalType": "address",
          "name": "newOwner",
          "type": "address"
        }
      ],
      "name": "OwnershipTransferred",
      "type": "event"
    },
    {
      "anonymous": false,
      "inputs": [
        {
          "indexed": true,
          "internalType": "address",
          "name": "from",
          "type": "address"
        },
        {
          "indexed": true,
          "internalType": "address",
          "name": "to",
          "type": "address"
        },
        {
          "indexed": true,
          "internalType": "uint256",
          "name": "tokenId",
          "type": "uint256"
        }
      ],
      "name": "Transfer",
      "type": "event"
    },
    {
      "inputs": [
        {
          "internalType": "address",
          "name": "to",
          "type": "address"
        },
        {
          "internalType": "uint256",
          "name": "tokenId",
          "type": "uint256"
        }
      ],
      "name": "approve",
      "outputs": [],
      "stateMutability": "nonpayable",
      "type": "function"
    },
    {
      "inputs": [
        {
          "internalType": "address",
          "name": "owner",
          "type": "address"
        }
      ],
      "name": "balanceOf",
      "outputs": [
        {
          "internalType": "uint256",
          "name": "",
          "type": "uint256"
        }
      ],
      "stateMutability": "view",
      "type": "function"
    },
    {
      "inputs": [
        {
          "internalType": "uint256",
          "name": "tokenId",
          "type": "uint256"
        }
      ],
      "name": "getApproved",
      "outputs": [
        {
          "internalType": "address",
          "name": "",
          "type": "address"
        }
      ],
      "stateMutability": "view",
      "type": "function"
    },
    {
      "inputs": [
        {
          "internalType": "address",
          "name": "owner",
          "type": "address"
        },
        {
          "internalType": "address",
          "name": "operator",
          "type": "address"
        }
      ],
      "name": "isApprovedForAll",
      "outputs": [
        {
          "internalType": "bool",
          "name": "",
          "type": "bool"
        }
      ],
      "stateMutability": "view",
      "type": "function"
    },
    {
      "inputs": [],
      "name": "name",
      "outputs": [
        {
          "internalType": "string",
          "name": "",
          "type": "string"
        }
      ],
      "stateMutability": "view",
      "type": "function"
    },
    {
      "inputs": [],
      "name": "owner",
      "outputs": [
        {
          "internalType": "address",
          "name": "",
          "type": "address"
        }
      ],
      "stateMutability": "view",
      "type": "function"
    },
    {
      "inputs": [
        {
          "internalType": "uint256",
          "name": "tokenId",
          "type": "uint256"
        }
      ],
      "name": "ownerOf",
      "outputs": [
        {
          "internalType": "address",
          "name": "",
          "type": "address"
        }
      ],
      "stateMutability": "view",
      "type": "function"
    },
    {
      "inputs": [],
      "name": "renounceOwnership",
      "outputs": [],
      "stateMutability": "nonpayable",
      "type": "function"
    },
    {
      "inputs": [
        {
          "internalType": "address",
          "name": "from",
          "type": "address"
        },
        {
          "internalType": "address",
          "name": "to",
          "type": "address"
        },
        {
          "internalType": "uint256",
          "name": "tokenId",
          "type": "uint256"
        }
      ],
      "name": "safeTransferFrom",
      "outputs": [],
      "stateMutability": "nonpayable",
      "type": "function"
    },
    {
      "inputs": [
        {
          "internalType": "address",
          "name": "from",
          "type": "address"
        },
        {
          "internalType": "address",
          "name": "to",
          "type": "address"
        },
        {
          "internalType": "uint256",
          "name": "tokenId",
          "type": "uint256"
        },
        {
          "internalType": "bytes",
          "name": "_data",
          "type": "bytes"
        }
      ],
      "name": "safeTransferFrom",
      "outputs": [],
      "stateMutability": "nonpayable",
      "type": "function"
    },
    {
      "inputs": [
        {
          "internalType": "address",
          "name": "operator",
          "type": "address"
        },
        {
          "internalType": "bool",
          "name": "approved",
          "type": "bool"
        }
      ],
      "name": "setApprovalForAll",
      "outputs": [],
      "stateMutability": "nonpayable",
      "type": "function"
    },
    {
      "inputs": [
        {
          "internalType": "bytes4",
          "name": "interfaceId",
          "type": "bytes4"
        }
      ],
      "name": "supportsInterface",
      "outputs": [
        {
          "internalType": "bool",
          "name": "",
          "type": "bool"
        }
      ],
      "stateMutability": "view",
      "type": "function"
    },
    {
      "inputs": [],
      "name": "symbol",
      "outputs": [
        {
          "internalType": "string",
          "name": "",
          "type": "string"
        }
      ],
      "stateMutability": "view",
      "type": "function"
    },
    {
      "inputs": [
        {
          "internalType": "address",
          "name": "from",
          "type": "address"
        },
        {
          "internalType": "address",
          "name": "to",
          "type": "address"
        },
        {
          "internalType": "uint256",
          "name": "tokenId",
          "type": "uint256"
        }
      ],
      "name": "transferFrom",
      "outputs": [],
      "stateMutability": "nonpayable",
      "type": "function"
    },
    {
      "inputs": [
        {
          "internalType": "address",
          "name": "newOwner",
          "type": "address"
        }
      ],
      "name": "transferOwnership",
      "outputs": [],
      "stateMutability": "nonpayable",
      "type": "function"
    },
    {
      "inputs": [
        {
          "internalType": "address",
          "name": "_to",
          "type": "address"
        },
        {
          "internalType": "uint256",
          "name": "_tokenId",
          "type": "uint256"
        },
        {
          "internalType": "string",
          "name": "tokenURI_",
          "type": "string"
        }
      ],
      "name": "mint",
      "outputs": [],
      "stateMutability": "nonpayable",
      "type": "function"
    },
    {
      "inputs": [
        {
          "internalType": "uint256",
          "name": "tokenId",
          "type": "uint256"
        }
      ],
      "name": "tokenURI",
      "outputs": [
        {
          "internalType": "string",
          "name": "",
          "type": "string"
        }
      ],
      "stateMutability": "view",
      "type": "function"
    }
  ],
  "bytecode": "0x60806040523480156200001157600080fd5b5060405162002f5338038062002f53833981810160405281019062000037919062000285565b818181600090805190602001906200005192919062000163565b5080600190805190602001906200006a92919062000163565b5050506200008d620000816200009560201b60201c565b6200009d60201b60201c565b505062000468565b600033905090565b6000600660009054906101000a900473ffffffffffffffffffffffffffffffffffffffff16905081600660006101000a81548173ffffffffffffffffffffffffffffffffffffffff021916908373ffffffffffffffffffffffffffffffffffffffff1602179055508173ffffffffffffffffffffffffffffffffffffffff168173ffffffffffffffffffffffffffffffffffffffff167f8be0079c531659141344cd1fd0a4f28419497f9722a3daafe3b4186f6b6457e060405160405180910390a35050565b82805462000171906200038d565b90600052602060002090601f016020900481019282620001955760008555620001e1565b82601f10620001b057805160ff1916838001178555620001e1565b82800160010185558215620001e1579182015b82811115620001e0578251825591602001919060010190620001c3565b5b509050620001f09190620001f4565b5090565b5b808211156200020f576000816000905550600101620001f5565b5090565b60006200022a620002248462000321565b620002f8565b9050828152602081018484840111156200024357600080fd5b6200025084828562000357565b509392505050565b600082601f8301126200026a57600080fd5b81516200027c84826020860162000213565b91505092915050565b600080604083850312156200029957600080fd5b600083015167ffffffffffffffff811115620002b457600080fd5b620002c28582860162000258565b925050602083015167ffffffffffffffff811115620002e057600080fd5b620002ee8582860162000258565b9150509250929050565b60006200030462000317565b9050620003128282620003c3565b919050565b6000604051905090565b600067ffffffffffffffff8211156200033f576200033e62000428565b5b6200034a8262000457565b9050602081019050919050565b60005b83811015620003775780820151818401526020810190506200035a565b8381111562000387576000848401525b50505050565b60006002820490506001821680620003a657607f821691505b60208210811415620003bd57620003bc620003f9565b5b50919050565b620003ce8262000457565b810181811067ffffffffffffffff82111715620003f057620003ef62000428565b5b80604052505050565b7f4e487b7100000000000000000000000000000000000000000000000000000000600052602260045260246000fd5b7f4e487b7100000000000000000000000000000000000000000000000000000000600052604160045260246000fd5b6000601f19601f8301169050919050565b612adb80620004786000396000f3fe608060405234801561001057600080fd5b506004361061010b5760003560e01c8063715018a6116100a2578063b88d4fde11610071578063b88d4fde146102a4578063c87b56dd146102c0578063d3fc9864146102f0578063e985e9c51461030c578063f2fde38b1461033c5761010b565b8063715018a6146102425780638da5cb5b1461024c57806395d89b411461026a578063a22cb465146102885761010b565b806323b872dd116100de57806323b872dd146101aa57806342842e0e146101c65780636352211e146101e257806370a08231146102125761010b565b806301ffc9a71461011057806306fdde0314610140578063081812fc1461015e578063095ea7b31461018e575b600080fd5b61012a60048036038101906101259190611c56565b610358565b604051610137919061202a565b60405180910390f35b61014861043a565b6040516101559190612045565b60405180910390f35b61017860048036038101906101739190611ca8565b6104cc565b6040516101859190611fc3565b60405180910390f35b6101a860048036038101906101a39190611bb3565b610551565b005b6101c460048036038101906101bf9190611aad565b610669565b005b6101e060048036038101906101db9190611aad565b6106c9565b005b6101fc60048036038101906101f79190611ca8565b6106e9565b6040516102099190611fc3565b60405180910390f35b61022c60048036038101906102279190611a48565b61079b565b6040516102399190612287565b60405180910390f35b61024a610853565b005b6102546108db565b6040516102619190611fc3565b60405180910390f35b610272610905565b60405161027f9190612045565b60405180910390f35b6102a2600480360381019061029d9190611b77565b610997565b005b6102be60048036038101906102b99190611afc565b610b18565b005b6102da60048036038101906102d59190611ca8565b610b7a565b6040516102e79190612045565b60405180910390f35b61030a60048036038101906103059190611bef565b610c67565b005b61032660048036038101906103219190611a71565b610cfc565b604051610333919061202a565b60405180910390f35b61035660048036038101906103519190611a48565b610d90565b005b60007f80ac58cd000000000000000000000000000000000000000000000000000000007bffffffffffffffffffffffffffffffffffffffffffffffffffffffff1916827bffffffffffffffffffffffffffffffffffffffffffffffffffffffff1916148061042357507f5b5e139f000000000000000000000000000000000000000000000000000000007bffffffffffffffffffffffffffffffffffffffffffffffffffffffff1916827bffffffffffffffffffffffffffffffffffffffffffffffffffffffff1916145b80610433575061043282610e88565b5b9050919050565b606060008054610449906124a1565b80601f0160208091040260200160405190810160405280929190818152602001828054610475906124a1565b80156104c25780601f10610497576101008083540402835291602001916104c2565b820191906000526020600020905b8154815290600101906020018083116104a557829003601f168201915b5050505050905090565b60006104d782610ef2565b610516576040517f08c379a000000000000000000000000000000000000000000000000000000000815260040161050d906121a7565b60405180910390fd5b6004600083815260200190815260200160002060009054906101000a900473ffffffffffffffffffffffffffffffffffffffff169050919050565b600061055c826106e9565b90508073ffffffffffffffffffffffffffffffffffffffff168373ffffffffffffffffffffffffffffffffffffffff1614156105cd576040517f08c379a00000000000000000000000000000000000000000000000000000000081526004016105c490612247565b60405180910390fd5b8073ffffffffffffffffffffffffffffffffffffffff166105ec610f5e565b73ffffffffffffffffffffffffffffffffffffffff16148061061b575061061a81610615610f5e565b610cfc565b5b61065a576040517f08c379a000000000000000000000000000000000000000000000000000000000815260040161065190612127565b60405180910390fd5b6106648383610f66565b505050565b61067a610674610f5e565b8261101f565b6106b9576040517f08c379a00000000000000000000000000000000000000000000000000000000081526004016106b090612267565b60405180910390fd5b6106c48383836110fd565b505050565b6106e483838360405180602001604052806000815250610b18565b505050565b6000806002600084815260200190815260200160002060009054906101000a900473ffffffffffffffffffffffffffffffffffffffff169050600073ffffffffffffffffffffffffffffffffffffffff168173ffffffffffffffffffffffffffffffffffffffff161415610792576040517f08c379a000000000000000000000000000000000000000000000000000000000815260040161078990612167565b60405180910390fd5b80915050919050565b60008073ffffffffffffffffffffffffffffffffffffffff168273ffffffffffffffffffffffffffffffffffffffff16141561080c576040517f08c379a000000000000000000000000000000000000000000000000000000000815260040161080390612147565b60405180910390fd5b600360008373ffffffffffffffffffffffffffffffffffffffff1673ffffffffffffffffffffffffffffffffffffffff168152602001908152602001600020549050919050565b61085b610f5e565b73ffffffffffffffffffffffffffffffffffffffff166108796108db565b73ffffffffffffffffffffffffffffffffffffffff16146108cf576040517f08c379a00000000000000000000000000000000000000000000000000000000081526004016108c6906121e7565b60405180910390fd5b6108d96000611359565b565b6000600660009054906101000a900473ffffffffffffffffffffffffffffffffffffffff16905090565b606060018054610914906124a1565b80601f0160208091040260200160405190810160405280929190818152602001828054610940906124a1565b801561098d5780601f106109625761010080835404028352916020019161098d565b820191906000526020600020905b81548152906001019060200180831161097057829003601f168201915b5050505050905090565b61099f610f5e565b73ffffffffffffffffffffffffffffffffffffffff168273ffffffffffffffffffffffffffffffffffffffff161415610a0d576040517f08c379a0000000000000000000000000000000000000000000000000000000008152600401610a04906120e7565b60405180910390fd5b8060056000610a1a610f5e565b73ffffffffffffffffffffffffffffffffffffffff1673ffffffffffffffffffffffffffffffffffffffff16815260200190815260200160002060008473ffffffffffffffffffffffffffffffffffffffff1673ffffffffffffffffffffffffffffffffffffffff16815260200190815260200160002060006101000a81548160ff0219169083151502179055508173ffffffffffffffffffffffffffffffffffffffff16610ac7610f5e565b73ffffffffffffffffffffffffffffffffffffffff167f17307eab39ab6107e8899845ad3d59bd9653f200f220920489ca2b5937696c3183604051610b0c919061202a565b60405180910390a35050565b610b29610b23610f5e565b8361101f565b610b68576040517f08c379a0000000000000000000000000000000000000000000000000000000008152600401610b5f90612267565b60405180910390fd5b610b748484848461141f565b50505050565b6060610b8582610ef2565b610bc4576040517f08c379a0000000000000000000000000000000000000000000000000000000008152600401610bbb90612227565b60405180910390fd5b600860008381526020019081526020016000208054610be2906124a1565b80601f0160208091040260200160405190810160405280929190818152602001828054610c0e906124a1565b8015610c5b5780601f10610c3057610100808354040283529160200191610c5b565b820191906000526020600020905b815481529060010190602001808311610c3e57829003601f168201915b50505050509050919050565b610c6f610f5e565b73ffffffffffffffffffffffffffffffffffffffff16610c8d6108db565b73ffffffffffffffffffffffffffffffffffffffff1614610ce3576040517f08c379a0000000000000000000000000000000000000000000000000000000008152600401610cda906121e7565b60405180910390fd5b610ced838361147b565b610cf78282611649565b505050565b6000600560008473ffffffffffffffffffffffffffffffffffffffff1673ffffffffffffffffffffffffffffffffffffffff16815260200190815260200160002060008373ffffffffffffffffffffffffffffffffffffffff1673ffffffffffffffffffffffffffffffffffffffff16815260200190815260200160002060009054906101000a900460ff16905092915050565b610d98610f5e565b73ffffffffffffffffffffffffffffffffffffffff16610db66108db565b73ffffffffffffffffffffffffffffffffffffffff1614610e0c576040517f08c379a0000000000000000000000000000000000000000000000000000000008152600401610e03906121e7565b60405180910390fd5b600073ffffffffffffffffffffffffffffffffffffffff168173ffffffffffffffffffffffffffffffffffffffff161415610e7c576040517f08c379a0000000000000000000000000000000000000000000000000000000008152600401610e7390612087565b60405180910390fd5b610e8581611359565b50565b60007f01ffc9a7000000000000000000000000000000000000000000000000000000007bffffffffffffffffffffffffffffffffffffffffffffffffffffffff1916827bffffffffffffffffffffffffffffffffffffffffffffffffffffffff1916149050919050565b60008073ffffffffffffffffffffffffffffffffffffffff166002600084815260200190815260200160002060009054906101000a900473ffffffffffffffffffffffffffffffffffffffff1673ffffffffffffffffffffffffffffffffffffffff1614159050919050565b600033905090565b816004600083815260200190815260200160002060006101000a81548173ffffffffffffffffffffffffffffffffffffffff021916908373ffffffffffffffffffffffffffffffffffffffff160217905550808273ffffffffffffffffffffffffffffffffffffffff16610fd9836106e9565b73ffffffffffffffffffffffffffffffffffffffff167f8c5be1e5ebec7d5bd14f71427d1e84f3dd0314c0f7b2291e5b200ac8c7c3b92560405160405180910390a45050565b600061102a82610ef2565b611069576040517f08c379a000000000000000000000000000000000000000000000000000000000815260040161106090612107565b60405180910390fd5b6000611074836106e9565b90508073ffffffffffffffffffffffffffffffffffffffff168473ffffffffffffffffffffffffffffffffffffffff1614806110e357508373ffffffffffffffffffffffffffffffffffffffff166110cb846104cc565b73ffffffffffffffffffffffffffffffffffffffff16145b806110f457506110f38185610cfc565b5b91505092915050565b8273ffffffffffffffffffffffffffffffffffffffff1661111d826106e9565b73ffffffffffffffffffffffffffffffffffffffff1614611173576040517f08c379a000000000000000000000000000000000000000000000000000000000815260040161116a90612207565b60405180910390fd5b600073ffffffffffffffffffffffffffffffffffffffff168273ffffffffffffffffffffffffffffffffffffffff1614156111e3576040517f08c379a00000000000000000000000000000000000000000000000000000000081526004016111da906120c7565b60405180910390fd5b6111ee8383836116bd565b6111f9600082610f66565b6001600360008573ffffffffffffffffffffffffffffffffffffffff1673ffffffffffffffffffffffffffffffffffffffff168152602001908152602001600020600082825461124991906123b7565b925050819055506001600360008473ffffffffffffffffffffffffffffffffffffffff1673ffffffffffffffffffffffffffffffffffffffff16815260200190815260200160002060008282546112a09190612361565b92505081905550816002600083815260200190815260200160002060006101000a81548173ffffffffffffffffffffffffffffffffffffffff021916908373ffffffffffffffffffffffffffffffffffffffff160217905550808273ffffffffffffffffffffffffffffffffffffffff168473ffffffffffffffffffffffffffffffffffffffff167fddf252ad1be2c89b69c2b068fc378daa952ba7f163c4a11628f55a4df523b3ef60405160405180910390a4505050565b6000600660009054906101000a900473ffffffffffffffffffffffffffffffffffffffff16905081600660006101000a81548173ffffffffffffffffffffffffffffffffffffffff021916908373ffffffffffffffffffffffffffffffffffffffff1602179055508173ffffffffffffffffffffffffffffffffffffffff168173ffffffffffffffffffffffffffffffffffffffff167f8be0079c531659141344cd1fd0a4f28419497f9722a3daafe3b4186f6b6457e060405160405180910390a35050565b61142a8484846110fd565b611436848484846116c2565b611475576040517f08c379a000000000000000000000000000000000000000000000000000000000815260040161146c90612067565b60405180910390fd5b50505050565b600073ffffffffffffffffffffffffffffffffffffffff168273ffffffffffffffffffffffffffffffffffffffff1614156114eb576040517f08c379a00000000000000000000000000000000000000000000000000000000081526004016114e290612187565b60405180910390fd5b6114f481610ef2565b15611534576040517f08c379a000000000000000000000000000000000000000000000000000000000815260040161152b906120a7565b60405180910390fd5b611540600083836116bd565b6001600360008473ffffffffffffffffffffffffffffffffffffffff1673ffffffffffffffffffffffffffffffffffffffff16815260200190815260200160002060008282546115909190612361565b92505081905550816002600083815260200190815260200160002060006101000a81548173ffffffffffffffffffffffffffffffffffffffff021916908373ffffffffffffffffffffffffffffffffffffffff160217905550808273ffffffffffffffffffffffffffffffffffffffff16600073ffffffffffffffffffffffffffffffffffffffff167fddf252ad1be2c89b69c2b068fc378daa952ba7f163c4a11628f55a4df523b3ef60405160405180910390a45050565b61165282610ef2565b611691576040517f08c379a0000000000000000000000000000000000000000000000000000000008152600401611688906121c7565b60405180910390fd5b806008600084815260200190815260200160002090805190602001906116b892919061186c565b505050565b505050565b60006116e38473ffffffffffffffffffffffffffffffffffffffff16611859565b1561184c578373ffffffffffffffffffffffffffffffffffffffff1663150b7a0261170c610f5e565b8786866040518563ffffffff1660e01b815260040161172e9493929190611fde565b602060405180830381600087803b15801561174857600080fd5b505af192505050801561177957506040513d601f19601f820116820180604052508101906117769190611c7f565b60015b6117fc573d80600081146117a9576040519150601f19603f3d011682016040523d82523d6000602084013e6117ae565b606091505b506000815114156117f4576040517f08c379a00000000000000000000000000000000000000000000000000000000081526004016117eb90612067565b60405180910390fd5b805181602001fd5b63150b7a0260e01b7bffffffffffffffffffffffffffffffffffffffffffffffffffffffff1916817bffffffffffffffffffffffffffffffffffffffffffffffffffffffff191614915050611851565b600190505b949350505050565b600080823b905060008111915050919050565b828054611878906124a1565b90600052602060002090601f01602090048101928261189a57600085556118e1565b82601f106118b357805160ff19168380011785556118e1565b828001600101855582156118e1579182015b828111156118e05782518255916020019190600101906118c5565b5b5090506118ee91906118f2565b5090565b5b8082111561190b5760008160009055506001016118f3565b5090565b600061192261191d846122c7565b6122a2565b90508281526020810184848401111561193a57600080fd5b61194584828561245f565b509392505050565b600061196061195b846122f8565b6122a2565b90508281526020810184848401111561197857600080fd5b61198384828561245f565b509392505050565b60008135905061199a81612a49565b92915050565b6000813590506119af81612a60565b92915050565b6000813590506119c481612a77565b92915050565b6000815190506119d981612a77565b92915050565b600082601f8301126119f057600080fd5b8135611a0084826020860161190f565b91505092915050565b600082601f830112611a1a57600080fd5b8135611a2a84826020860161194d565b91505092915050565b600081359050611a4281612a8e565b92915050565b600060208284031215611a5a57600080fd5b6000611a688482850161198b565b91505092915050565b60008060408385031215611a8457600080fd5b6000611a928582860161198b565b9250506020611aa38582860161198b565b9150509250929050565b600080600060608486031215611ac257600080fd5b6000611ad08682870161198b565b9350506020611ae18682870161198b565b9250506040611af286828701611a33565b9150509250925092565b60008060008060808587031215611b1257600080fd5b6000611b208782880161198b565b9450506020611b318782880161198b565b9350506040611b4287828801611a33565b925050606085013567ffffffffffffffff811115611b5f57600080fd5b611b6b878288016119df565b91505092959194509250565b60008060408385031215611b8a57600080fd5b6000611b988582860161198b565b9250506020611ba9858286016119a0565b9150509250929050565b60008060408385031215611bc657600080fd5b6000611bd48582860161198b565b9250506020611be585828601611a33565b9150509250929050565b600080600060608486031215611c0457600080fd5b6000611c128682870161198b565b9350506020611c2386828701611a33565b925050604084013567ffffffffffffffff811115611c4057600080fd5b611c4c86828701611a09565b9150509250925092565b600060208284031215611c6857600080fd5b6000611c76848285016119b5565b91505092915050565b600060208284031215611c9157600080fd5b6000611c9f848285016119ca565b91505092915050565b600060208284031215611cba57600080fd5b6000611cc884828501611a33565b91505092915050565b611cda816123eb565b82525050565b611ce9816123fd565b82525050565b6000611cfa82612329565b611d04818561233f565b9350611d1481856020860161246e565b611d1d81612591565b840191505092915050565b6000611d3382612334565b611d3d8185612350565b9350611d4d81856020860161246e565b611d5681612591565b840191505092915050565b6000611d6e603283612350565b9150611d79826125a2565b604082019050919050565b6000611d91602683612350565b9150611d9c826125f1565b604082019050919050565b6000611db4601c83612350565b9150611dbf82612640565b602082019050919050565b6000611dd7602483612350565b9150611de282612669565b604082019050919050565b6000611dfa601983612350565b9150611e05826126b8565b602082019050919050565b6000611e1d602c83612350565b9150611e28826126e1565b604082019050919050565b6000611e40603883612350565b9150611e4b82612730565b604082019050919050565b6000611e63602a83612350565b9150611e6e8261277f565b604082019050919050565b6000611e86602983612350565b9150611e91826127ce565b604082019050919050565b6000611ea9602083612350565b9150611eb48261281d565b602082019050919050565b6000611ecc602c83612350565b9150611ed782612846565b604082019050919050565b6000611eef602c83612350565b9150611efa82612895565b604082019050919050565b6000611f12602083612350565b9150611f1d826128e4565b602082019050919050565b6000611f35602983612350565b9150611f408261290d565b604082019050919050565b6000611f58602f83612350565b9150611f638261295c565b604082019050919050565b6000611f7b602183612350565b9150611f86826129ab565b604082019050919050565b6000611f9e603183612350565b9150611fa9826129fa565b604082019050919050565b611fbd81612455565b82525050565b6000602082019050611fd86000830184611cd1565b92915050565b6000608082019050611ff36000830187611cd1565b6120006020830186611cd1565b61200d6040830185611fb4565b818103606083015261201f8184611cef565b905095945050505050565b600060208201905061203f6000830184611ce0565b92915050565b6000602082019050818103600083015261205f8184611d28565b905092915050565b6000602082019050818103600083015261208081611d61565b9050919050565b600060208201905081810360008301526120a081611d84565b9050919050565b600060208201905081810360008301526120c081611da7565b9050919050565b600060208201905081810360008301526120e081611dca565b9050919050565b6000602082019050818103600083015261210081611ded565b9050919050565b6000602082019050818103600083015261212081611e10565b9050919050565b6000602082019050818103600083015261214081611e33565b9050919050565b6000602082019050818103600083015261216081611e56565b9050919050565b6000602082019050818103600083015261218081611e79565b9050919050565b600060208201905081810360008301526121a081611e9c565b9050919050565b600060208201905081810360008301526121c081611ebf565b9050919050565b600060208201905081810360008301526121e081611ee2565b9050919050565b6000602082019050818103600083015261220081611f05565b9050919050565b6000602082019050818103600083015261222081611f28565b9050919050565b6000602082019050818103600083015261224081611f4b565b9050919050565b6000602082019050818103600083015261226081611f6e565b9050919050565b6000602082019050818103600083015261228081611f91565b9050919050565b600060208201905061229c6000830184611fb4565b92915050565b60006122ac6122bd565b90506122b882826124d3565b919050565b6000604051905090565b600067ffffffffffffffff8211156122e2576122e1612562565b5b6122eb82612591565b9050602081019050919050565b600067ffffffffffffffff82111561231357612312612562565b5b61231c82612591565b9050602081019050919050565b600081519050919050565b600081519050919050565b600082825260208201905092915050565b600082825260208201905092915050565b600061236c82612455565b915061237783612455565b9250827fffffffffffffffffffffffffffffffffffffffffffffffffffffffffffffffff038211156123ac576123ab612504565b5b828201905092915050565b60006123c282612455565b91506123cd83612455565b9250828210156123e0576123df612504565b5b828203905092915050565b60006123f682612435565b9050919050565b60008115159050919050565b60007fffffffff0000000000000000000000000000000000000000000000000000000082169050919050565b600073ffffffffffffffffffffffffffffffffffffffff82169050919050565b6000819050919050565b82818337600083830152505050565b60005b8381101561248c578082015181840152602081019050612471565b8381111561249b576000848401525b50505050565b600060028204905060018216806124b957607f821691505b602082108114156124cd576124cc612533565b5b50919050565b6124dc82612591565b810181811067ffffffffffffffff821117156124fb576124fa612562565b5b80604052505050565b7f4e487b7100000000000000000000000000000000000000000000000000000000600052601160045260246000fd5b7f4e487b7100000000000000000000000000000000000000000000000000000000600052602260045260246000fd5b7f4e487b7100000000000000000000000000000000000000000000000000000000600052604160045260246000fd5b6000601f19601f8301169050919050565b7f4552433732313a207472616e7366657220746f206e6f6e20455243373231526560008201527f63656976657220696d706c656d656e7465720000000000000000000000000000602082015250565b7f4f776e61626c653a206e6577206f776e657220697320746865207a65726f206160008201527f6464726573730000000000000000000000000000000000000000000000000000602082015250565b7f4552433732313a20746f6b656e20616c7265616479206d696e74656400000000600082015250565b7f4552433732313a207472616e7366657220746f20746865207a65726f2061646460008201527f7265737300000000000000000000000000000000000000000000000000000000602082015250565b7f4552433732313a20617070726f766520746f2063616c6c657200000000000000600082015250565b7f4552433732313a206f70657261746f7220717565727920666f72206e6f6e657860008201527f697374656e7420746f6b656e0000000000000000000000000000000000000000602082015250565b7f4552433732313a20617070726f76652063616c6c6572206973206e6f74206f7760008201527f6e6572206e6f7220617070726f76656420666f7220616c6c0000000000000000602082015250565b7f4552433732313a2062616c616e636520717565727920666f7220746865207a6560008201527f726f206164647265737300000000000000000000000000000000000000000000602082015250565b7f4552433732313a206f776e657220717565727920666f72206e6f6e657869737460008201527f656e7420746f6b656e0000000000000000000000000000000000000000000000602082015250565b7f4552433732313a206d696e7420746f20746865207a65726f2061646472657373600082015250565b7f4552433732313a20617070726f76656420717565727920666f72206e6f6e657860008201527f697374656e7420746f6b656e0000000000000000000000000000000000000000602082015250565b7f4552433732314d657461646174613a2055524920736574206f66206e6f6e657860008201527f697374656e7420746f6b656e0000000000000000000000000000000000000000602082015250565b7f4f776e61626c653a2063616c6c6572206973206e6f7420746865206f776e6572600082015250565b7f4552433732313a207472616e73666572206f6620746f6b656e2074686174206960008201527f73206e6f74206f776e0000000000000000000000000000000000000000000000602082015250565b7f4552433732314d657461646174613a2055524920717565727920666f72206e6f60008201527f6e6578697374656e7420746f6b656e0000000000000000000000000000000000602082015250565b7f4552433732313a20617070726f76616c20746f2063757272656e74206f776e6560008201527f7200000000000000000000000000000000000000000000000000000000000000602082015250565b7f4552433732313a207472616e736665722063616c6c6572206973206e6f74206f60008201527f776e6572206e6f7220617070726f766564000000000000000000000000000000602082015250565b612a52816123eb565b8114612a5d57600080fd5b50565b612a69816123fd565b8114612a7457600080fd5b50565b612a8081612409565b8114612a8b57600080fd5b50565b612a9781612455565b8114612aa257600080fd5b5056fea2646970667358221220a30455808f76c7dc4e2b8eae0f37480c002afc60f4a2de04c45d8da8f694d70864736f6c63430008030033",
  "immutableReferences": {},
  "source": "// SPDX-License-Identifier: MIT\npragma solidity 0.8.3;\n\nimport \"@openzeppelin/contracts/token/ERC721/ERC721.sol\";\nimport \"@openzeppelin/contracts/utils/Counters.sol\";\nimport \"@openzeppelin/contracts/access/Ownable.sol\";\n\ncontract ArtToken is ERC721, Ownable {\n    using Counters for Counters.Counter;\n    Counters.Counter private _tokenIds;\n    mapping (uint256 => string) private _tokenURIs;\n\n    constructor(string memory _name, string memory _symbol) ERC721(_name, _symbol) {}\n\n    function _setTokenURI(uint256 tokenId, string memory _tokenURI) internal virtual {\n        require(_exists(tokenId), \"ERC721Metadata: URI set of nonexistent token\");\n        _tokenURIs[tokenId] = _tokenURI;\n    }\n\n    function mint(\n        address _to,\n        uint256 _tokenId,\n        string memory tokenURI_\n    ) external onlyOwner() {\n        _mint(_to, _tokenId);\n        _setTokenURI(_tokenId, tokenURI_);\n    }\n\n    function tokenURI(uint256 tokenId) public view virtual override returns (string memory) {\n        require(_exists(tokenId), \"ERC721Metadata: URI query for nonexistent token\");\n\n        return _tokenURIs[tokenId];\n    }\n}\n",
  "sourcePath": "D:\\falseman\\2021-09-07\\nft-image-backend\\contracts\\ArtToken.sol",
  "compiler": {
    "name": "solc",
    "version": "0.8.3+commit.8d00100c.Emscripten.clang"
  },
  "schemaVersion": "3.4.3",
  "updatedAt": "2021-09-08T22:37:38.788Z",
  "devdoc": {
    "kind": "dev",
    "methods": {
      "approve(address,uint256)": {
        "details": "See {IERC721-approve}."
      },
      "balanceOf(address)": {
        "details": "See {IERC721-balanceOf}."
      },
      "getApproved(uint256)": {
        "details": "See {IERC721-getApproved}."
      },
      "isApprovedForAll(address,address)": {
        "details": "See {IERC721-isApprovedForAll}."
      },
      "name()": {
        "details": "See {IERC721Metadata-name}."
      },
      "owner()": {
        "details": "Returns the address of the current owner."
      },
      "ownerOf(uint256)": {
        "details": "See {IERC721-ownerOf}."
      },
      "renounceOwnership()": {
        "details": "Leaves the contract without owner. It will not be possible to call `onlyOwner` functions anymore. Can only be called by the current owner. NOTE: Renouncing ownership will leave the contract without an owner, thereby removing any functionality that is only available to the owner."
      },
      "safeTransferFrom(address,address,uint256)": {
        "details": "See {IERC721-safeTransferFrom}."
      },
      "safeTransferFrom(address,address,uint256,bytes)": {
        "details": "See {IERC721-safeTransferFrom}."
      },
      "setApprovalForAll(address,bool)": {
        "details": "See {IERC721-setApprovalForAll}."
      },
      "supportsInterface(bytes4)": {
        "details": "See {IERC165-supportsInterface}."
      },
      "symbol()": {
        "details": "See {IERC721Metadata-symbol}."
      },
      "tokenURI(uint256)": {
        "details": "See {IERC721Metadata-tokenURI}."
      },
      "transferFrom(address,address,uint256)": {
        "details": "See {IERC721-transferFrom}."
      },
      "transferOwnership(address)": {
        "details": "Transfers ownership of the contract to a new account (`newOwner`). Can only be called by the current owner."
      }
    },
    "version": 1
  },
  "userdoc": {
    "kind": "user",
    "methods": {},
    "version": 1
  }
}